{
  "contractName": "MarksheetStorage",
  "abi": [
    {
      "constant": false,
      "inputs": [
        {
          "internalType": "uint256",
          "name": "id",
          "type": "uint256"
        },
        {
          "internalType": "string",
          "name": "student_name",
          "type": "string"
        }
      ],
      "name": "addStudent",
      "outputs": [
        {
          "internalType": "uint256",
          "name": "return_id",
          "type": "uint256"
        }
      ],
      "payable": false,
      "stateMutability": "nonpayable",
      "type": "function"
    },
    {
      "constant": true,
      "inputs": [
        {
          "internalType": "uint256",
          "name": "id",
          "type": "uint256"
        }
      ],
      "name": "getStudentName",
      "outputs": [
        {
          "internalType": "string",
          "name": "name",
          "type": "string"
        }
      ],
      "payable": false,
      "stateMutability": "view",
      "type": "function"
    },
    {
      "constant": true,
      "inputs": [
        {
          "internalType": "uint256",
          "name": "id",
          "type": "uint256"
        }
      ],
      "name": "getStudentMarksheetsCount",
      "outputs": [
        {
          "internalType": "uint256",
          "name": "total_marksheets",
          "type": "uint256"
        }
      ],
      "payable": false,
      "stateMutability": "view",
      "type": "function"
    },
    {
      "constant": false,
      "inputs": [
        {
          "internalType": "uint256",
          "name": "id",
          "type": "uint256"
        },
        {
          "internalType": "string",
          "name": "marksheet_title",
          "type": "string"
        },
        {
          "internalType": "uint256",
          "name": "total_subjects",
          "type": "uint256"
        }
      ],
      "name": "addMarksheet",
      "outputs": [
        {
          "internalType": "uint256",
          "name": "marksheet_id",
          "type": "uint256"
        }
      ],
      "payable": false,
      "stateMutability": "nonpayable",
      "type": "function"
    },
    {
      "constant": false,
      "inputs": [
        {
          "internalType": "uint256",
          "name": "id",
          "type": "uint256"
        },
        {
          "internalType": "uint256",
          "name": "marksheet_id",
          "type": "uint256"
        },
        {
          "internalType": "uint256",
          "name": "marksheet_row_id",
          "type": "uint256"
        },
        {
          "internalType": "string",
          "name": "subject_name",
          "type": "string"
        },
        {
          "internalType": "uint256",
          "name": "marks_obtained",
          "type": "uint256"
        },
        {
          "internalType": "uint256",
          "name": "total_marks",
          "type": "uint256"
        },
        {
          "internalType": "bool",
          "name": "pass",
          "type": "bool"
        }
      ],
      "name": "addMarksheetRow",
      "outputs": [
        {
          "internalType": "uint256",
          "name": "return_marksheet_row_id",
          "type": "uint256"
        }
      ],
      "payable": false,
      "stateMutability": "nonpayable",
      "type": "function"
    },
    {
      "constant": true,
      "inputs": [
        {
          "internalType": "uint256",
          "name": "id",
          "type": "uint256"
        },
        {
          "internalType": "uint256",
          "name": "marksheet_id",
          "type": "uint256"
        },
        {
          "internalType": "uint256",
          "name": "marksheet_row_id",
          "type": "uint256"
        }
      ],
      "name": "getMarks",
      "outputs": [
        {
          "internalType": "string",
          "name": "subject_name",
          "type": "string"
        },
        {
          "internalType": "uint256",
          "name": "marks_obtained",
          "type": "uint256"
        },
        {
          "internalType": "uint256",
          "name": "total_marks",
          "type": "uint256"
        }
      ],
      "payable": false,
      "stateMutability": "view",
      "type": "function"
    }
  ],
  "bytecode": "0x608060405234801561001057600080fd5b50610b9e806100206000396000f3fe608060405234801561001057600080fd5b50600436106100615760003560e01c8062c533f614610066578063231c0d491461012f57806342ecc52a1461023c57806350f60f30146103155780639ac43876146103f8578063e30f52591461049f575b600080fd5b6100a66004803603606081101561007c57600080fd5b810190808035906020019092919080359060200190929190803590602001909291905050506104e1565b6040518080602001848152602001838152602001828103825285818151815260200191508051906020019080838360005b838110156100f25780820151818401526020810190506100d7565b50505050905090810190601f16801561011f5780820380516001836020036101000a031916815260200191505b5094505050505060405180910390f35b610226600480360360e081101561014557600080fd5b810190808035906020019092919080359060200190929190803590602001909291908035906020019064010000000081111561018057600080fd5b82018360208201111561019257600080fd5b803590602001918460018302840111640100000000831117156101b457600080fd5b91908080601f016020809104026020016040519081016040528093929190818152602001838380828437600081840152601f19601f820116905080830192505050505050509192919290803590602001909291908035906020019092919080351515906020019092919050505061064a565b6040518082815260200191505060405180910390f35b6102ff6004803603604081101561025257600080fd5b81019080803590602001909291908035906020019064010000000081111561027957600080fd5b82018360208201111561028b57600080fd5b803590602001918460018302840111640100000000831117156102ad57600080fd5b91908080601f016020809104026020016040519081016040528093929190818152602001838380828437600081840152601f19601f82011690508083019250505050505050919291929050505061070b565b6040518082815260200191505060405180910390f35b6103e26004803603606081101561032b57600080fd5b81019080803590602001909291908035906020019064010000000081111561035257600080fd5b82018360208201111561036457600080fd5b8035906020019184600183028401116401000000008311171561038657600080fd5b91908080601f016020809104026020016040519081016040528093929190818152602001838380828437600081840152601f19601f820116905080830192505050505050509192919290803590602001909291905050506107d4565b6040518082815260200191505060405180910390f35b6104246004803603602081101561040e57600080fd5b810190808035906020019092919050505061096e565b6040518080602001828103825283818151815260200191508051906020019080838360005b83811015610464578082015181840152602081019050610449565b50505050905090810190601f1680156104915780820380516001836020036101000a031916815260200191505b509250505060405180910390f35b6104cb600480360360208110156104b557600080fd5b8101908080359060200190929190505050610a25565b6040518082815260200191505060405180910390f35b60606000806000808781526020019081526020016000206004016000868152602001908152602001600020600401600085815260200190815260200160002060000160008088815260200190815260200160002060040160008781526020019081526020016000206004016000868152602001908152602001600020600101546000808981526020019081526020016000206004016000888152602001908152602001600020600401600087815260200190815260200160002060020154828054600181600116156101000203166002900480601f0160208091040260200160405190810160405280929190818152602001828054600181600116156101000203166002900480156106345780601f1061060957610100808354040283529160200191610634565b820191906000526020600020905b81548152906001019060200180831161061757829003601f168201915b5050505050925092509250925093509350939050565b600060405180608001604052808681526020018581526020018481526020018315158152506000808a81526020019081526020016000206004016000898152602001908152602001600020600401600088815260200190815260200160002060008201518160000190805190602001906106c5929190610a44565b50602082015181600101556040820151816002015560608201518160030160006101000a81548160ff021916908315150217905550905050859050979650505050505050565b600080600084815260200190815260200160002060030160009054906101000a900460ff161561073d578290506107ce565b816000808581526020019081526020016000206001019080519060200190610766929190610ac4565b508260008085815260200190815260200160002060000181905550600080600085815260200190815260200160002060020181905550600160008085815260200190815260200160002060030160006101000a81548160ff0219169083151502179055508290505b92915050565b6000806000858152602001908152602001600020600401600080600087815260200190815260200160002060020154815260200190815260200160002060030160009054906101000a900460ff161561082f57839050610967565b8260008086815260200190815260200160002060040160008060008881526020019081526020016000206002015481526020019081526020016000206002019080519060200190610881929190610ac4565b508160008086815260200190815260200160002060040160008060008881526020019081526020016000206002015481526020019081526020016000206001018190555060016000808681526020019081526020016000206002015401600080868152602001908152602001600020600201819055506001600080868152602001908152602001600020600401600080600088815260200190815260200160002060020154815260200190815260200160002060030160006101000a81548160ff0219169083151502179055506000808581526020019081526020016000206002015490505b9392505050565b60606000808381526020019081526020016000206001018054600181600116156101000203166002900480601f016020809104026020016040519081016040528092919081815260200182805460018160011615610100020316600290048015610a195780601f106109ee57610100808354040283529160200191610a19565b820191906000526020600020905b8154815290600101906020018083116109fc57829003601f168201915b50505050509050919050565b6000806000838152602001908152602001600020600201549050919050565b828054600181600116156101000203166002900490600052602060002090601f016020900481019282601f10610a8557805160ff1916838001178555610ab3565b82800160010185558215610ab3579182015b82811115610ab2578251825591602001919060010190610a97565b5b509050610ac09190610b44565b5090565b828054600181600116156101000203166002900490600052602060002090601f016020900481019282601f10610b0557805160ff1916838001178555610b33565b82800160010185558215610b33579182015b82811115610b32578251825591602001919060010190610b17565b5b509050610b409190610b44565b5090565b610b6691905b80821115610b62576000816000905550600101610b4a565b5090565b9056fea265627a7a723158208e7a017db3dfa1358718b1a6e006637324bb50b5a288f5138b456c094313160264736f6c63430005100032",
  "source": "pragma solidity ^0.5.16;\n\ncontract MarksheetStorage {\n \n  struct MarksheetRow {\n    string subject_name;\n    uint marks_obtained;\n    uint total_marks;\n    bool pass;\n  }\n  struct Marksheet {\n    uint marksheet_id;\n    uint total_subjects;\n    string marksheet_title;\n    bool active;\n    mapping(uint => MarksheetRow) marksheetRows;\n  }\n \n \n  struct Student {\n    uint id;\n    string name;\n    uint total_marksheets;\n    bool active;\n    mapping(uint => Marksheet) marksheets;\n  }\n \n  mapping(uint => Student) students;\n\n \n  function addStudent(uint id, string memory student_name) public returns(uint return_id) {\n    if(students[id].active ){\n      return id;\n    }\n    students[id].name = student_name;\n    students[id].id = id;\n    students[id].total_marksheets = 0;\n    students[id].active = true;\n    return (id);\n  }\n \n  function getStudentName(uint id) public view returns(string memory name) {\n    return(students[id].name);\n  }\n\n  function getStudentMarksheetsCount(uint id) public view returns(uint total_marksheets) {\n    return(students[id].total_marksheets);\n  }\n\n  function addMarksheet(uint id, string memory marksheet_title, uint total_subjects) public returns( uint marksheet_id) {\n    if(students[id].marksheets[students[id].total_marksheets].active ){\n      return id;\n    }\n    students[id].marksheets[students[id].total_marksheets].marksheet_title = marksheet_title; \n    students[id].marksheets[students[id].total_marksheets].total_subjects = total_subjects; \n    students[id].total_marksheets = students[id].total_marksheets + 1;\n    students[id].marksheets[students[id].total_marksheets].active  = true;\n    return students[id].total_marksheets ;\n  }\n  \n  function addMarksheetRow(uint id, uint marksheet_id, uint marksheet_row_id, string memory subject_name, uint marks_obtained, uint total_marks, bool pass) public returns(uint return_marksheet_row_id) {\n    students[id].marksheets[marksheet_id].marksheetRows[marksheet_row_id] = MarksheetRow({\n      subject_name : subject_name,\n      marks_obtained : marks_obtained,\n      total_marks : total_marks,\n      pass: pass\n    });\n   return marksheet_row_id;\n }\n\n  function getMarks(uint id,uint marksheet_id, uint marksheet_row_id ) public view returns(string memory subject_name, uint marks_obtained, uint total_marks) {\n    return(students[id].marksheets[marksheet_id].marksheetRows[marksheet_row_id].subject_name, students[id].marksheets[marksheet_id].marksheetRows[marksheet_row_id].marks_obtained, students[id].marksheets[marksheet_id].marksheetRows[marksheet_row_id].total_marks);\n  }\n \n \n}\n",
  "sourcePath": "/home/jigar/Projects/TezosApplication/NightBuild/hello_contract-truffle/contracts/MarksheetStorage.sol",
  "compiler": {
    "name": "solc",
    "version": "0.5.16+commit.9c3226ce.Emscripten.clang"
  },
  "schemaVersion": "3.4.6",
  "updatedAt": "2022-04-09T19:36:29.727Z",
  "devdoc": {
    "methods": {}
  },
  "userdoc": {
    "methods": {}
  }
}